{
  "_format": "hh-sol-artifact-1",
  "contractName": "DocumentNotary",
  "sourceName": "contracts/DocumentNotary.sol",
  "abi": [
    {
      "anonymous": false,
      "inputs": [
        {
          "indexed": true,
          "internalType": "bytes32",
          "name": "docHash",
          "type": "bytes32"
        },
        {
          "indexed": true,
          "internalType": "address",
          "name": "owner",
          "type": "address"
        },
        {
          "indexed": false,
          "internalType": "uint256",
          "name": "timestamp",
          "type": "uint256"
        },
        {
          "indexed": false,
          "internalType": "string",
          "name": "metadata",
          "type": "string"
        },
        {
          "indexed": false,
          "internalType": "uint256",
          "name": "chainId",
          "type": "uint256"
        }
      ],
      "name": "DocumentNotarized",
      "type": "event"
    },
    {
      "anonymous": false,
      "inputs": [
        {
          "indexed": true,
          "internalType": "bytes32",
          "name": "docHash",
          "type": "bytes32"
        },
        {
          "indexed": true,
          "internalType": "address",
          "name": "owner",
          "type": "address"
        },
        {
          "indexed": false,
          "internalType": "uint256",
          "name": "timestamp",
          "type": "uint256"
        }
      ],
      "name": "DocumentRevoked",
      "type": "event"
    },
    {
      "anonymous": false,
      "inputs": [
        {
          "indexed": true,
          "internalType": "bytes32",
          "name": "docHash",
          "type": "bytes32"
        },
        {
          "indexed": true,
          "internalType": "address",
          "name": "previousOwner",
          "type": "address"
        },
        {
          "indexed": true,
          "internalType": "address",
          "name": "newOwner",
          "type": "address"
        },
        {
          "indexed": false,
          "internalType": "uint256",
          "name": "timestamp",
          "type": "uint256"
        }
      ],
      "name": "OwnershipTransferred",
      "type": "event"
    },
    {
      "inputs": [
        {
          "internalType": "address",
          "name": "_owner",
          "type": "address"
        }
      ],
      "name": "getOwnerDocumentCount",
      "outputs": [
        {
          "internalType": "uint256",
          "name": "",
          "type": "uint256"
        }
      ],
      "stateMutability": "view",
      "type": "function"
    },
    {
      "inputs": [
        {
          "internalType": "address",
          "name": "_owner",
          "type": "address"
        }
      ],
      "name": "getOwnerDocuments",
      "outputs": [
        {
          "internalType": "bytes32[]",
          "name": "",
          "type": "bytes32[]"
        }
      ],
      "stateMutability": "view",
      "type": "function"
    },
    {
      "inputs": [
        {
          "internalType": "bytes32",
          "name": "_docHash",
          "type": "bytes32"
        }
      ],
      "name": "isNotarized",
      "outputs": [
        {
          "internalType": "bool",
          "name": "",
          "type": "bool"
        }
      ],
      "stateMutability": "view",
      "type": "function"
    },
    {
      "inputs": [
        {
          "internalType": "bytes32",
          "name": "_docHash",
          "type": "bytes32"
        },
        {
          "internalType": "string",
          "name": "_metadata",
          "type": "string"
        }
      ],
      "name": "notarizeDocument",
      "outputs": [],
      "stateMutability": "nonpayable",
      "type": "function"
    },
    {
      "inputs": [
        {
          "internalType": "bytes32",
          "name": "_docHash",
          "type": "bytes32"
        }
      ],
      "name": "revokeDocument",
      "outputs": [],
      "stateMutability": "nonpayable",
      "type": "function"
    },
    {
      "inputs": [],
      "name": "totalDocuments",
      "outputs": [
        {
          "internalType": "uint256",
          "name": "",
          "type": "uint256"
        }
      ],
      "stateMutability": "view",
      "type": "function"
    },
    {
      "inputs": [
        {
          "internalType": "bytes32",
          "name": "_docHash",
          "type": "bytes32"
        },
        {
          "internalType": "address",
          "name": "_newOwner",
          "type": "address"
        }
      ],
      "name": "transferOwnership",
      "outputs": [],
      "stateMutability": "nonpayable",
      "type": "function"
    },
    {
      "inputs": [
        {
          "internalType": "bytes32",
          "name": "_docHash",
          "type": "bytes32"
        }
      ],
      "name": "verifyDocument",
      "outputs": [
        {
          "internalType": "address",
          "name": "owner",
          "type": "address"
        },
        {
          "internalType": "uint256",
          "name": "timestamp",
          "type": "uint256"
        },
        {
          "internalType": "string",
          "name": "metadata",
          "type": "string"
        },
        {
          "internalType": "bool",
          "name": "isRevoked",
          "type": "bool"
        },
        {
          "internalType": "uint256",
          "name": "chainId",
          "type": "uint256"
        }
      ],
      "stateMutability": "view",
      "type": "function"
    }
  ],
  "bytecode": "0x6080604052348015600f57600080fd5b50610c9e8061001f6000396000f3fe608060405234801561001057600080fd5b50600436106100885760003560e01c8063ad3e04201161005b578063ad3e042014610107578063ef5d6bbb1461011a578063fe35089f1461012d578063fe6ad6c61461015157600080fd5b806313db6af41461008d57806343d59665146100c9578063553181ec146100e9578063952be80d146100f2575b600080fd5b6100b661009b3660046108a0565b6001600160a01b031660009081526001602052604090205490565b6040519081526020015b60405180910390f35b6100dc6100d73660046108a0565b610186565b6040516100c091906108c2565b6100b660025481565b610105610100366004610905565b6101f2565b005b610105610115366004610934565b61034c565b6101056101283660046109f7565b610511565b61014061013b366004610905565b61072a565b6040516100c0959493929190610a69565b61017661015f366004610905565b600090815260208190526040902060020154151590565b60405190151581526020016100c0565b6001600160a01b0381166000908152600160209081526040918290208054835181840281018401909452808452606093928301828280156101e657602002820191906000526020600020905b8154815260200190600101908083116101d2575b50505050509050919050565b60008181526020819052604090206001015481906001600160a01b0316331461025b5760405162461bcd60e51b81526020600482015260166024820152752737ba103a3432903237b1bab6b2b73a1037bbb732b960511b60448201526064015b60405180910390fd5b60008281526020819052604081206002015483910361028c5760405162461bcd60e51b815260040161025290610aa4565b600083815260208190526040902060040154839060ff16156102ec5760405162461bcd60e51b8152602060048201526019602482015278111bd8dd5b595b9d081a185cc81899595b881c995d9bdad959603a1b6044820152606401610252565b60008481526020819052604090819020600401805460ff1916600117905551339085907f58dab06ff4a881de7cd15a590640a447aec068b61e18a8b9b4ae28a8984fe3d69061033e9042815260200190565b60405180910390a350505050565b816103915760405162461bcd60e51b8152602060048201526015602482015274092dcecc2d8d2c840c8dec6eadacadce840d0c2e6d605b1b6044820152606401610252565b600082815260208190526040902060020154156103f05760405162461bcd60e51b815260206004820152601a60248201527f446f63756d656e7420616c7265616479206e6f746172697a65640000000000006044820152606401610252565b6040805160c08101825283815233602080830191825242838501908152606084018681526000608086018190524660a0870181905289825293819052959095208451815592516001840180546001600160a01b0319166001600160a01b039092169190911790555160028301559251600382019061046e9082610b59565b50608082015160048201805460ff191691151591909117905560a090910151600590910155336000908152600160208181526040832080549283018155835282200184905560028054916104c183610c18565b9190505550336001600160a01b0316837f3c2ee4a0559d08a0c8197abd946f95616b9f9ef3b458574f7668ab7b4cdd295642858560405161050493929190610c3f565b60405180910390a3505050565b60008281526020819052604090206001015482906001600160a01b031633146105755760405162461bcd60e51b81526020600482015260166024820152752737ba103a3432903237b1bab6b2b73a1037bbb732b960511b6044820152606401610252565b6000838152602081905260408120600201548491036105a65760405162461bcd60e51b815260040161025290610aa4565b600084815260208190526040902060040154849060ff16156106065760405162461bcd60e51b8152602060048201526019602482015278111bd8dd5b595b9d081a185cc81899595b881c995d9bdad959603a1b6044820152606401610252565b6001600160a01b0384166106505760405162461bcd60e51b815260206004820152601160248201527024b73b30b634b2103732bb9037bbb732b960791b6044820152606401610252565b336001600160a01b0385160361069c5760405162461bcd60e51b815260206004820152601160248201527020b63932b0b23c903a34329037bbb732b960791b6044820152606401610252565b600085815260208181526040808320600190810180546001600160a01b031981166001600160a01b038b8116918217909355808752838652848720805494850181558752958590209092018a9055915142815291169291839189917fa52922d09c6a1791e36eb59a9e49d10485a999fa47c3930dde6f6bf4329579d1910160405180910390a4505050505050565b600080606060008085600080828152602001908152602001600020600201546000036107685760405162461bcd60e51b815260040161025290610aa4565b600087815260208181526040808320815160c0810183528154815260018201546001600160a01b0316938101939093526002810154918301919091526003810180546060840191906107b990610ad0565b80601f01602080910402602001604051908101604052809291908181526020018280546107e590610ad0565b80156108325780601f1061080757610100808354040283529160200191610832565b820191906000526020600020905b81548152906001019060200180831161081557829003601f168201915b5050509183525050600482015460ff16151560208083019190915260059092015460409182015290820151908201516060830151608084015160a090940151929c919b50995091975095509350505050565b80356001600160a01b038116811461089b57600080fd5b919050565b6000602082840312156108b257600080fd5b6108bb82610884565b9392505050565b602080825282518282018190526000918401906040840190835b818110156108fa5783518352602093840193909201916001016108dc565b509095945050505050565b60006020828403121561091757600080fd5b5035919050565b634e487b7160e01b600052604160045260246000fd5b6000806040838503121561094757600080fd5b82359150602083013567ffffffffffffffff81111561096557600080fd5b8301601f8101851361097657600080fd5b803567ffffffffffffffff8111156109905761099061091e565b604051601f8201601f19908116603f0116810167ffffffffffffffff811182821017156109bf576109bf61091e565b6040528181528282016020018710156109d757600080fd5b816020840160208301376000602083830101528093505050509250929050565b60008060408385031215610a0a57600080fd5b82359150610a1a60208401610884565b90509250929050565b6000815180845260005b81811015610a4957602081850181015186830182015201610a2d565b506000602082860101526020601f19601f83011685010191505092915050565b60018060a01b038616815284602082015260a060408201526000610a9060a0830186610a23565b931515606083015250608001529392505050565b602080825260129082015271111bd8dd5b595b9d081b9bdd08199bdd5b9960721b604082015260600190565b600181811c90821680610ae457607f821691505b602082108103610b0457634e487b7160e01b600052602260045260246000fd5b50919050565b601f821115610b5457806000526020600020601f840160051c81016020851015610b315750805b601f840160051c820191505b81811015610b515760008155600101610b3d565b50505b505050565b815167ffffffffffffffff811115610b7357610b7361091e565b610b8781610b818454610ad0565b84610b0a565b6020601f821160018114610bbb5760008315610ba35750848201515b600019600385901b1c1916600184901b178455610b51565b600084815260208120601f198516915b82811015610beb5787850151825560209485019460019092019101610bcb565b5084821015610c095786840151600019600387901b60f8161c191681555b50505050600190811b01905550565b600060018201610c3857634e487b7160e01b600052601160045260246000fd5b5060010190565b838152606060208201526000610c586060830185610a23565b905082604083015294935050505056fea2646970667358221220e31f231cc60fcfa8c30f133e0ed8be34a1533636cd458c23e3cdb0c927827f1364736f6c634300081c0033",
  "linkReferences": {},
  "deployedLinkReferences": {}
}